{
  "_format": "hh-sol-artifact-1",
  "contractName": "ClawdPayments",
  "sourceName": "contracts/ClawdPayments.sol",
  "abi": [
    {
      "inputs": [
        {
          "internalType": "address",
          "name": "_usdc",
          "type": "address"
        },
        {
          "internalType": "address",
          "name": "_agentRegistry",
          "type": "address"
        },
        {
          "internalType": "address",
          "name": "_platformWallet",
          "type": "address"
        }
      ],
      "stateMutability": "nonpayable",
      "type": "constructor"
    },
    {
      "inputs": [
        {
          "internalType": "address",
          "name": "owner",
          "type": "address"
        }
      ],
      "name": "OwnableInvalidOwner",
      "type": "error"
    },
    {
      "inputs": [
        {
          "internalType": "address",
          "name": "account",
          "type": "address"
        }
      ],
      "name": "OwnableUnauthorizedAccount",
      "type": "error"
    },
    {
      "inputs": [],
      "name": "ReentrancyGuardReentrantCall",
      "type": "error"
    },
    {
      "inputs": [
        {
          "internalType": "address",
          "name": "token",
          "type": "address"
        }
      ],
      "name": "SafeERC20FailedOperation",
      "type": "error"
    },
    {
      "anonymous": false,
      "inputs": [
        {
          "indexed": true,
          "internalType": "string",
          "name": "adId",
          "type": "string"
        },
        {
          "indexed": true,
          "internalType": "address",
          "name": "advertiser",
          "type": "address"
        },
        {
          "indexed": false,
          "internalType": "uint256",
          "name": "amount",
          "type": "uint256"
        }
      ],
      "name": "AdPayment",
      "type": "event"
    },
    {
      "anonymous": false,
      "inputs": [
        {
          "indexed": true,
          "internalType": "address",
          "name": "previousOwner",
          "type": "address"
        },
        {
          "indexed": true,
          "internalType": "address",
          "name": "newOwner",
          "type": "address"
        }
      ],
      "name": "OwnershipTransferred",
      "type": "event"
    },
    {
      "anonymous": false,
      "inputs": [
        {
          "indexed": true,
          "internalType": "address",
          "name": "oldWallet",
          "type": "address"
        },
        {
          "indexed": true,
          "internalType": "address",
          "name": "newWallet",
          "type": "address"
        }
      ],
      "name": "PlatformWalletUpdated",
      "type": "event"
    },
    {
      "anonymous": false,
      "inputs": [
        {
          "indexed": true,
          "internalType": "string",
          "name": "subId",
          "type": "string"
        },
        {
          "indexed": true,
          "internalType": "address",
          "name": "subscriber",
          "type": "address"
        },
        {
          "indexed": false,
          "internalType": "uint256",
          "name": "amount",
          "type": "uint256"
        }
      ],
      "name": "SubscriptionPayment",
      "type": "event"
    },
    {
      "anonymous": false,
      "inputs": [
        {
          "indexed": true,
          "internalType": "string",
          "name": "agentId",
          "type": "string"
        },
        {
          "indexed": true,
          "internalType": "address",
          "name": "tipper",
          "type": "address"
        },
        {
          "indexed": false,
          "internalType": "uint256",
          "name": "amount",
          "type": "uint256"
        },
        {
          "indexed": false,
          "internalType": "uint256",
          "name": "agentShare",
          "type": "uint256"
        },
        {
          "indexed": false,
          "internalType": "uint256",
          "name": "platformShare",
          "type": "uint256"
        },
        {
          "indexed": false,
          "internalType": "address",
          "name": "agentPayoutWallet",
          "type": "address"
        }
      ],
      "name": "TipSent",
      "type": "event"
    },
    {
      "inputs": [],
      "name": "AGENT_TIP_SHARE",
      "outputs": [
        {
          "internalType": "uint256",
          "name": "",
          "type": "uint256"
        }
      ],
      "stateMutability": "view",
      "type": "function"
    },
    {
      "inputs": [],
      "name": "BASIS_POINTS",
      "outputs": [
        {
          "internalType": "uint256",
          "name": "",
          "type": "uint256"
        }
      ],
      "stateMutability": "view",
      "type": "function"
    },
    {
      "inputs": [],
      "name": "PLATFORM_TIP_SHARE",
      "outputs": [
        {
          "internalType": "uint256",
          "name": "",
          "type": "uint256"
        }
      ],
      "stateMutability": "view",
      "type": "function"
    },
    {
      "inputs": [],
      "name": "agentRegistry",
      "outputs": [
        {
          "internalType": "contract IAgentRegistry",
          "name": "",
          "type": "address"
        }
      ],
      "stateMutability": "view",
      "type": "function"
    },
    {
      "inputs": [
        {
          "internalType": "address",
          "name": "token",
          "type": "address"
        },
        {
          "internalType": "uint256",
          "name": "amount",
          "type": "uint256"
        }
      ],
      "name": "emergencyWithdraw",
      "outputs": [],
      "stateMutability": "nonpayable",
      "type": "function"
    },
    {
      "inputs": [],
      "name": "owner",
      "outputs": [
        {
          "internalType": "address",
          "name": "",
          "type": "address"
        }
      ],
      "stateMutability": "view",
      "type": "function"
    },
    {
      "inputs": [
        {
          "internalType": "string",
          "name": "adId",
          "type": "string"
        },
        {
          "internalType": "uint256",
          "name": "amount",
          "type": "uint256"
        }
      ],
      "name": "payAd",
      "outputs": [],
      "stateMutability": "nonpayable",
      "type": "function"
    },
    {
      "inputs": [
        {
          "internalType": "string",
          "name": "subId",
          "type": "string"
        },
        {
          "internalType": "uint256",
          "name": "amount",
          "type": "uint256"
        }
      ],
      "name": "paySubscription",
      "outputs": [],
      "stateMutability": "nonpayable",
      "type": "function"
    },
    {
      "inputs": [],
      "name": "platformWallet",
      "outputs": [
        {
          "internalType": "address",
          "name": "",
          "type": "address"
        }
      ],
      "stateMutability": "view",
      "type": "function"
    },
    {
      "inputs": [],
      "name": "renounceOwnership",
      "outputs": [],
      "stateMutability": "nonpayable",
      "type": "function"
    },
    {
      "inputs": [
        {
          "internalType": "string",
          "name": "agentId",
          "type": "string"
        },
        {
          "internalType": "uint256",
          "name": "amount",
          "type": "uint256"
        }
      ],
      "name": "tipAgent",
      "outputs": [],
      "stateMutability": "nonpayable",
      "type": "function"
    },
    {
      "inputs": [
        {
          "internalType": "address",
          "name": "newOwner",
          "type": "address"
        }
      ],
      "name": "transferOwnership",
      "outputs": [],
      "stateMutability": "nonpayable",
      "type": "function"
    },
    {
      "inputs": [
        {
          "internalType": "address",
          "name": "newWallet",
          "type": "address"
        }
      ],
      "name": "updatePlatformWallet",
      "outputs": [],
      "stateMutability": "nonpayable",
      "type": "function"
    },
    {
      "inputs": [],
      "name": "usdc",
      "outputs": [
        {
          "internalType": "contract IERC20",
          "name": "",
          "type": "address"
        }
      ],
      "stateMutability": "view",
      "type": "function"
    }
  ],
  "bytecode": "0x60c06040523480156200001157600080fd5b5060405162000e7038038062000e708339810160408190526200003491620001e3565b33806200005c57604051631e4fbdf760e01b8152600060048201526024015b60405180910390fd5b620000678162000176565b50600180556001600160a01b038316620000b35760405162461bcd60e51b815260206004820152600c60248201526b496e76616c6964205553444360a01b604482015260640162000053565b6001600160a01b038216620000fe5760405162461bcd60e51b815260206004820152601060248201526f496e76616c696420726567697374727960801b604482015260640162000053565b6001600160a01b038116620001475760405162461bcd60e51b815260206004820152600e60248201526d125b9d985b1a59081dd85b1b195d60921b604482015260640162000053565b6001600160a01b0392831660805290821660a052600280546001600160a01b031916919092161790556200022d565b600080546001600160a01b038381166001600160a01b0319831681178455604051919092169283917f8be0079c531659141344cd1fd0a4f28419497f9722a3daafe3b4186f6b6457e09190a35050565b80516001600160a01b0381168114620001de57600080fd5b919050565b600080600060608486031215620001f957600080fd5b6200020484620001c6565b92506200021460208501620001c6565b91506200022460408501620001c6565b90509250925092565b60805160a051610bed620002836000396000818160f401528181610570015261063201526000818161014d015281816102a2015281816103b3015281816105ee0152818161072901526107610152610bed6000f3fe608060405234801561001057600080fd5b50600436106100ea5760003560e01c806395ccea671161008c578063e1f1c4a711610066578063e1f1c4a7146101eb578063f2fde38b146101f4578063fa2af9da14610207578063fa93b5931461021a57600080fd5b806395ccea67146101b2578063ada4ef30146101c5578063d2c771df146101d857600080fd5b80635df4b2c5116100c85780635df4b2c51461016f578063715018a6146101865780638a8187ba1461018e5780638da5cb5b146101a157600080fd5b80630d1cfcae146100ef5780632ca053a6146101335780633e413bee14610148575b600080fd5b6101167f000000000000000000000000000000000000000000000000000000000000000081565b6040516001600160a01b0390911681526020015b60405180910390f35b6101466101413660046109f5565b610223565b005b6101167f000000000000000000000000000000000000000000000000000000000000000081565b6101786107d081565b60405190815260200161012a565b610146610328565b61014661019c3660046109f5565b61033c565b6000546001600160a01b0316610116565b6101466101c0366004610a82565b610427565b6101466101d3366004610aae565b610459565b6101466101e63660046109f5565b6104fa565b61017861271081565b610146610202366004610aae565b610801565b600254610116906001600160a01b031681565b610178611f4081565b61022b61083f565b600081116102545760405162461bcd60e51b815260040161024b90610ad2565b60405180910390fd5b816102915760405162461bcd60e51b815260206004820152600d60248201526c125b9d985b1a59081859081251609a1b604482015260640161024b565b6002546102cd906001600160a01b037f000000000000000000000000000000000000000000000000000000000000000081169133911684610869565b60405133906102df9085908590610b09565b604051908190038120838252907f43fb0c291e45d5fb1979d41c8d0613b35088009059047aadac008f51f40e5dc0906020015b60405180910390a361032360018055565b505050565b6103306108d6565b61033a6000610903565b565b61034461083f565b600081116103645760405162461bcd60e51b815260040161024b90610ad2565b816103a25760405162461bcd60e51b815260206004820152600e60248201526d125b9d985b1a59081cdd5888125160921b604482015260640161024b565b6002546103de906001600160a01b037f000000000000000000000000000000000000000000000000000000000000000081169133911684610869565b60405133906103f09085908590610b09565b604051908190038120838252907f21493ddf1a79c2d69a480a49709cfc62e2926344313a00f0bc4401994a283f6690602001610312565b61042f6108d6565b6104556104446000546001600160a01b031690565b6001600160a01b0384169083610953565b5050565b6104616108d6565b6001600160a01b0381166104a85760405162461bcd60e51b815260206004820152600e60248201526d125b9d985b1a59081dd85b1b195d60921b604482015260640161024b565b600280546001600160a01b038381166001600160a01b0319831681179093556040519116919082907ff84f6b525c89a18c80bbbc0c62a7eb5390956d6b8432ab067b49963a98f8c38f90600090a35050565b61050261083f565b600081116105225760405162461bcd60e51b815260040161024b90610ad2565b60008383604051602001610537929190610b09565b60408051601f19818403018152908290528051602090910120639bef1c4360e01b82526004820181905291506000906001600160a01b037f00000000000000000000000000000000000000000000000000000000000000001690639bef1c4390602401602060405180830381865afa1580156105b7573d6000803e3d6000fd5b505050506040513d601f19601f820116820180604052508101906105db9190610b19565b9050600083816106166001600160a01b037f000000000000000000000000000000000000000000000000000000000000000016333085610869565b831561075057604051638777b7b960e01b8152600481018590527f00000000000000000000000000000000000000000000000000000000000000006001600160a01b031690638777b7b990602401602060405180830381865afa158015610681573d6000803e3d6000fd5b505050506040513d601f19601f820116820180604052508101906106a59190610b32565b90506001600160a01b0381166106f55760405162461bcd60e51b8152602060048201526015602482015274125b9d985b1a59081c185e5bdd5d081dd85b1b195d605a1b604482015260640161024b565b612710610704611f4088610b65565b61070e9190610b82565b925061071a8387610ba4565b91506107506001600160a01b037f0000000000000000000000000000000000000000000000000000000000000000168285610953565b60025461078a906001600160a01b037f00000000000000000000000000000000000000000000000000000000000000008116911684610953565b604051339061079c908a908a90610b09565b60408051918290038220898352602083018790529082018590526001600160a01b0384166060830152907fecdd16b0e243c702d5df69929ec23fe46f95a5f99333908b4784db2e24759f579060800160405180910390a3505050505061032360018055565b6108096108d6565b6001600160a01b03811661083357604051631e4fbdf760e01b81526000600482015260240161024b565b61083c81610903565b50565b60026001540361086257604051633ee5aeb560e01b815260040160405180910390fd5b6002600155565b6040516001600160a01b0384811660248301528381166044830152606482018390526108d09186918216906323b872dd906084015b604051602081830303815290604052915060e01b6020820180516001600160e01b038381831617835250505050610984565b50505050565b6000546001600160a01b0316331461033a5760405163118cdaa760e01b815233600482015260240161024b565b600080546001600160a01b038381166001600160a01b0319831681178455604051919092169283917f8be0079c531659141344cd1fd0a4f28419497f9722a3daafe3b4186f6b6457e09190a35050565b6040516001600160a01b0383811660248301526044820183905261032391859182169063a9059cbb9060640161089e565b600080602060008451602086016000885af1806109a7576040513d6000823e3d81fd5b50506000513d915081156109bf5780600114156109cc565b6001600160a01b0384163b155b156108d057604051635274afe760e01b81526001600160a01b038516600482015260240161024b565b600080600060408486031215610a0a57600080fd5b833567ffffffffffffffff80821115610a2257600080fd5b818601915086601f830112610a3657600080fd5b813581811115610a4557600080fd5b876020828501011115610a5757600080fd5b6020928301989097509590910135949350505050565b6001600160a01b038116811461083c57600080fd5b60008060408385031215610a9557600080fd5b8235610aa081610a6d565b946020939093013593505050565b600060208284031215610ac057600080fd5b8135610acb81610a6d565b9392505050565b60208082526017908201527f416d6f756e74206d75737420626520706f736974697665000000000000000000604082015260600190565b8183823760009101908152919050565b600060208284031215610b2b57600080fd5b5051919050565b600060208284031215610b4457600080fd5b8151610acb81610a6d565b634e487b7160e01b600052601160045260246000fd5b8082028115828204841417610b7c57610b7c610b4f565b92915050565b600082610b9f57634e487b7160e01b600052601260045260246000fd5b500490565b81810381811115610b7c57610b7c610b4f56fea26469706673582212205a6f955f823c79620b826f846a06e126e04b5eb62867cceda8e18abcb977311164736f6c63430008140033",
  "linkReferences": {},
  "deployedLinkReferences": {}
}