{
  "_format": "hh-sol-artifact-1",
  "contractName": "AgentRegistry",
  "sourceName": "contracts/AgentRegistry.sol",
  "abi": [
    {
      "inputs": [],
      "stateMutability": "nonpayable",
      "type": "constructor"
    },
    {
      "inputs": [
        {
          "internalType": "address",
          "name": "sender",
          "type": "address"
        },
        {
          "internalType": "uint256",
          "name": "tokenId",
          "type": "uint256"
        },
        {
          "internalType": "address",
          "name": "owner",
          "type": "address"
        }
      ],
      "name": "ERC721IncorrectOwner",
      "type": "error"
    },
    {
      "inputs": [
        {
          "internalType": "address",
          "name": "operator",
          "type": "address"
        },
        {
          "internalType": "uint256",
          "name": "tokenId",
          "type": "uint256"
        }
      ],
      "name": "ERC721InsufficientApproval",
      "type": "error"
    },
    {
      "inputs": [
        {
          "internalType": "address",
          "name": "approver",
          "type": "address"
        }
      ],
      "name": "ERC721InvalidApprover",
      "type": "error"
    },
    {
      "inputs": [
        {
          "internalType": "address",
          "name": "operator",
          "type": "address"
        }
      ],
      "name": "ERC721InvalidOperator",
      "type": "error"
    },
    {
      "inputs": [
        {
          "internalType": "address",
          "name": "owner",
          "type": "address"
        }
      ],
      "name": "ERC721InvalidOwner",
      "type": "error"
    },
    {
      "inputs": [
        {
          "internalType": "address",
          "name": "receiver",
          "type": "address"
        }
      ],
      "name": "ERC721InvalidReceiver",
      "type": "error"
    },
    {
      "inputs": [
        {
          "internalType": "address",
          "name": "sender",
          "type": "address"
        }
      ],
      "name": "ERC721InvalidSender",
      "type": "error"
    },
    {
      "inputs": [
        {
          "internalType": "uint256",
          "name": "tokenId",
          "type": "uint256"
        }
      ],
      "name": "ERC721NonexistentToken",
      "type": "error"
    },
    {
      "inputs": [
        {
          "internalType": "address",
          "name": "owner",
          "type": "address"
        }
      ],
      "name": "OwnableInvalidOwner",
      "type": "error"
    },
    {
      "inputs": [
        {
          "internalType": "address",
          "name": "account",
          "type": "address"
        }
      ],
      "name": "OwnableUnauthorizedAccount",
      "type": "error"
    },
    {
      "anonymous": false,
      "inputs": [
        {
          "indexed": true,
          "internalType": "string",
          "name": "agentId",
          "type": "string"
        },
        {
          "indexed": true,
          "internalType": "uint256",
          "name": "tokenId",
          "type": "uint256"
        },
        {
          "indexed": true,
          "internalType": "address",
          "name": "owner",
          "type": "address"
        },
        {
          "indexed": false,
          "internalType": "address",
          "name": "payoutWallet",
          "type": "address"
        }
      ],
      "name": "AgentMinted",
      "type": "event"
    },
    {
      "anonymous": false,
      "inputs": [
        {
          "indexed": true,
          "internalType": "string",
          "name": "agentId",
          "type": "string"
        },
        {
          "indexed": false,
          "internalType": "bytes32",
          "name": "reservationHash",
          "type": "bytes32"
        },
        {
          "indexed": false,
          "internalType": "uint256",
          "name": "expiresAt",
          "type": "uint256"
        },
        {
          "indexed": true,
          "internalType": "address",
          "name": "authorizedWallet",
          "type": "address"
        }
      ],
      "name": "AgentReserved",
      "type": "event"
    },
    {
      "anonymous": false,
      "inputs": [
        {
          "indexed": true,
          "internalType": "address",
          "name": "owner",
          "type": "address"
        },
        {
          "indexed": true,
          "internalType": "address",
          "name": "approved",
          "type": "address"
        },
        {
          "indexed": true,
          "internalType": "uint256",
          "name": "tokenId",
          "type": "uint256"
        }
      ],
      "name": "Approval",
      "type": "event"
    },
    {
      "anonymous": false,
      "inputs": [
        {
          "indexed": true,
          "internalType": "address",
          "name": "owner",
          "type": "address"
        },
        {
          "indexed": true,
          "internalType": "address",
          "name": "operator",
          "type": "address"
        },
        {
          "indexed": false,
          "internalType": "bool",
          "name": "approved",
          "type": "bool"
        }
      ],
      "name": "ApprovalForAll",
      "type": "event"
    },
    {
      "anonymous": false,
      "inputs": [
        {
          "indexed": true,
          "internalType": "address",
          "name": "previousOwner",
          "type": "address"
        },
        {
          "indexed": true,
          "internalType": "address",
          "name": "newOwner",
          "type": "address"
        }
      ],
      "name": "OwnershipTransferred",
      "type": "event"
    },
    {
      "anonymous": false,
      "inputs": [
        {
          "indexed": true,
          "internalType": "uint256",
          "name": "tokenId",
          "type": "uint256"
        },
        {
          "indexed": true,
          "internalType": "address",
          "name": "oldWallet",
          "type": "address"
        },
        {
          "indexed": true,
          "internalType": "address",
          "name": "newWallet",
          "type": "address"
        }
      ],
      "name": "PayoutWalletUpdated",
      "type": "event"
    },
    {
      "anonymous": false,
      "inputs": [
        {
          "indexed": true,
          "internalType": "address",
          "name": "from",
          "type": "address"
        },
        {
          "indexed": true,
          "internalType": "address",
          "name": "to",
          "type": "address"
        },
        {
          "indexed": true,
          "internalType": "uint256",
          "name": "tokenId",
          "type": "uint256"
        }
      ],
      "name": "Transfer",
      "type": "event"
    },
    {
      "anonymous": false,
      "inputs": [
        {
          "indexed": true,
          "internalType": "uint256",
          "name": "tokenId",
          "type": "uint256"
        },
        {
          "indexed": false,
          "internalType": "bool",
          "name": "isVerified",
          "type": "bool"
        },
        {
          "indexed": false,
          "internalType": "bool",
          "name": "isFullyVerified",
          "type": "bool"
        }
      ],
      "name": "VerificationUpdated",
      "type": "event"
    },
    {
      "inputs": [
        {
          "internalType": "bytes32",
          "name": "",
          "type": "bytes32"
        }
      ],
      "name": "agentKeyToTokenId",
      "outputs": [
        {
          "internalType": "uint256",
          "name": "",
          "type": "uint256"
        }
      ],
      "stateMutability": "view",
      "type": "function"
    },
    {
      "inputs": [
        {
          "internalType": "address",
          "name": "to",
          "type": "address"
        },
        {
          "internalType": "uint256",
          "name": "tokenId",
          "type": "uint256"
        }
      ],
      "name": "approve",
      "outputs": [],
      "stateMutability": "nonpayable",
      "type": "function"
    },
    {
      "inputs": [
        {
          "internalType": "address",
          "name": "owner",
          "type": "address"
        }
      ],
      "name": "balanceOf",
      "outputs": [
        {
          "internalType": "uint256",
          "name": "",
          "type": "uint256"
        }
      ],
      "stateMutability": "view",
      "type": "function"
    },
    {
      "inputs": [
        {
          "internalType": "uint256",
          "name": "tokenId",
          "type": "uint256"
        }
      ],
      "name": "getApproved",
      "outputs": [
        {
          "internalType": "address",
          "name": "",
          "type": "address"
        }
      ],
      "stateMutability": "view",
      "type": "function"
    },
    {
      "inputs": [
        {
          "internalType": "string",
          "name": "agentId",
          "type": "string"
        }
      ],
      "name": "getPayoutWallet",
      "outputs": [
        {
          "internalType": "address",
          "name": "",
          "type": "address"
        }
      ],
      "stateMutability": "view",
      "type": "function"
    },
    {
      "inputs": [
        {
          "internalType": "string",
          "name": "agentId",
          "type": "string"
        }
      ],
      "name": "isAgentFullyVerified",
      "outputs": [
        {
          "internalType": "bool",
          "name": "",
          "type": "bool"
        }
      ],
      "stateMutability": "view",
      "type": "function"
    },
    {
      "inputs": [
        {
          "internalType": "string",
          "name": "agentId",
          "type": "string"
        }
      ],
      "name": "isAgentVerified",
      "outputs": [
        {
          "internalType": "bool",
          "name": "",
          "type": "bool"
        }
      ],
      "stateMutability": "view",
      "type": "function"
    },
    {
      "inputs": [
        {
          "internalType": "address",
          "name": "owner",
          "type": "address"
        },
        {
          "internalType": "address",
          "name": "operator",
          "type": "address"
        }
      ],
      "name": "isApprovedForAll",
      "outputs": [
        {
          "internalType": "bool",
          "name": "",
          "type": "bool"
        }
      ],
      "stateMutability": "view",
      "type": "function"
    },
    {
      "inputs": [
        {
          "internalType": "uint256",
          "name": "",
          "type": "uint256"
        }
      ],
      "name": "isFullyVerified",
      "outputs": [
        {
          "internalType": "bool",
          "name": "",
          "type": "bool"
        }
      ],
      "stateMutability": "view",
      "type": "function"
    },
    {
      "inputs": [
        {
          "internalType": "uint256",
          "name": "",
          "type": "uint256"
        }
      ],
      "name": "isVerified",
      "outputs": [
        {
          "internalType": "bool",
          "name": "",
          "type": "bool"
        }
      ],
      "stateMutability": "view",
      "type": "function"
    },
    {
      "inputs": [
        {
          "internalType": "string",
          "name": "agentId",
          "type": "string"
        },
        {
          "internalType": "string",
          "name": "metadataURI",
          "type": "string"
        },
        {
          "internalType": "address",
          "name": "desiredPayoutWallet",
          "type": "address"
        }
      ],
      "name": "mintReservedAgent",
      "outputs": [],
      "stateMutability": "nonpayable",
      "type": "function"
    },
    {
      "inputs": [],
      "name": "name",
      "outputs": [
        {
          "internalType": "string",
          "name": "",
          "type": "string"
        }
      ],
      "stateMutability": "view",
      "type": "function"
    },
    {
      "inputs": [],
      "name": "owner",
      "outputs": [
        {
          "internalType": "address",
          "name": "",
          "type": "address"
        }
      ],
      "stateMutability": "view",
      "type": "function"
    },
    {
      "inputs": [
        {
          "internalType": "uint256",
          "name": "tokenId",
          "type": "uint256"
        }
      ],
      "name": "ownerOf",
      "outputs": [
        {
          "internalType": "address",
          "name": "",
          "type": "address"
        }
      ],
      "stateMutability": "view",
      "type": "function"
    },
    {
      "inputs": [
        {
          "internalType": "uint256",
          "name": "",
          "type": "uint256"
        }
      ],
      "name": "payoutWallets",
      "outputs": [
        {
          "internalType": "address",
          "name": "",
          "type": "address"
        }
      ],
      "stateMutability": "view",
      "type": "function"
    },
    {
      "inputs": [],
      "name": "renounceOwnership",
      "outputs": [],
      "stateMutability": "nonpayable",
      "type": "function"
    },
    {
      "inputs": [
        {
          "internalType": "bytes32",
          "name": "",
          "type": "bytes32"
        }
      ],
      "name": "reservations",
      "outputs": [
        {
          "internalType": "bytes32",
          "name": "reservationHash",
          "type": "bytes32"
        },
        {
          "internalType": "uint256",
          "name": "expiresAt",
          "type": "uint256"
        },
        {
          "internalType": "bool",
          "name": "claimed",
          "type": "bool"
        },
        {
          "internalType": "address",
          "name": "authorizedWallet",
          "type": "address"
        }
      ],
      "stateMutability": "view",
      "type": "function"
    },
    {
      "inputs": [
        {
          "internalType": "string",
          "name": "agentId",
          "type": "string"
        },
        {
          "internalType": "bytes32",
          "name": "reservationHash",
          "type": "bytes32"
        },
        {
          "internalType": "uint256",
          "name": "expiry",
          "type": "uint256"
        },
        {
          "internalType": "address",
          "name": "authorizedWallet",
          "type": "address"
        }
      ],
      "name": "reserveAgent",
      "outputs": [],
      "stateMutability": "nonpayable",
      "type": "function"
    },
    {
      "inputs": [
        {
          "internalType": "address",
          "name": "from",
          "type": "address"
        },
        {
          "internalType": "address",
          "name": "to",
          "type": "address"
        },
        {
          "internalType": "uint256",
          "name": "tokenId",
          "type": "uint256"
        }
      ],
      "name": "safeTransferFrom",
      "outputs": [],
      "stateMutability": "nonpayable",
      "type": "function"
    },
    {
      "inputs": [
        {
          "internalType": "address",
          "name": "from",
          "type": "address"
        },
        {
          "internalType": "address",
          "name": "to",
          "type": "address"
        },
        {
          "internalType": "uint256",
          "name": "tokenId",
          "type": "uint256"
        },
        {
          "internalType": "bytes",
          "name": "data",
          "type": "bytes"
        }
      ],
      "name": "safeTransferFrom",
      "outputs": [],
      "stateMutability": "nonpayable",
      "type": "function"
    },
    {
      "inputs": [
        {
          "internalType": "address",
          "name": "operator",
          "type": "address"
        },
        {
          "internalType": "bool",
          "name": "approved",
          "type": "bool"
        }
      ],
      "name": "setApprovalForAll",
      "outputs": [],
      "stateMutability": "nonpayable",
      "type": "function"
    },
    {
      "inputs": [
        {
          "internalType": "uint256",
          "name": "tokenId",
          "type": "uint256"
        },
        {
          "internalType": "bool",
          "name": "_isVerified",
          "type": "bool"
        },
        {
          "internalType": "bool",
          "name": "_isFullyVerified",
          "type": "bool"
        }
      ],
      "name": "setVerificationStatus",
      "outputs": [],
      "stateMutability": "nonpayable",
      "type": "function"
    },
    {
      "inputs": [
        {
          "internalType": "bytes4",
          "name": "interfaceId",
          "type": "bytes4"
        }
      ],
      "name": "supportsInterface",
      "outputs": [
        {
          "internalType": "bool",
          "name": "",
          "type": "bool"
        }
      ],
      "stateMutability": "view",
      "type": "function"
    },
    {
      "inputs": [],
      "name": "symbol",
      "outputs": [
        {
          "internalType": "string",
          "name": "",
          "type": "string"
        }
      ],
      "stateMutability": "view",
      "type": "function"
    },
    {
      "inputs": [
        {
          "internalType": "uint256",
          "name": "",
          "type": "uint256"
        }
      ],
      "name": "tokenToAgentKey",
      "outputs": [
        {
          "internalType": "bytes32",
          "name": "",
          "type": "bytes32"
        }
      ],
      "stateMutability": "view",
      "type": "function"
    },
    {
      "inputs": [
        {
          "internalType": "uint256",
          "name": "tokenId",
          "type": "uint256"
        }
      ],
      "name": "tokenURI",
      "outputs": [
        {
          "internalType": "string",
          "name": "",
          "type": "string"
        }
      ],
      "stateMutability": "view",
      "type": "function"
    },
    {
      "inputs": [
        {
          "internalType": "address",
          "name": "from",
          "type": "address"
        },
        {
          "internalType": "address",
          "name": "to",
          "type": "address"
        },
        {
          "internalType": "uint256",
          "name": "tokenId",
          "type": "uint256"
        }
      ],
      "name": "transferFrom",
      "outputs": [],
      "stateMutability": "nonpayable",
      "type": "function"
    },
    {
      "inputs": [
        {
          "internalType": "address",
          "name": "newOwner",
          "type": "address"
        }
      ],
      "name": "transferOwnership",
      "outputs": [],
      "stateMutability": "nonpayable",
      "type": "function"
    },
    {
      "inputs": [
        {
          "internalType": "uint256",
          "name": "tokenId",
          "type": "uint256"
        },
        {
          "internalType": "address",
          "name": "newWallet",
          "type": "address"
        }
      ],
      "name": "updatePayoutWallet",
      "outputs": [],
      "stateMutability": "nonpayable",
      "type": "function"
    }
  ],
  "bytecode": "0x60806040523480156200001157600080fd5b50336040518060400160405280600f81526020016e10db185dd911995959081059d95b9d608a1b8152506040518060400160405280600a81526020016910d31055d11051d1539560b21b81525081600090816200006f9190620001b9565b5060016200007e8282620001b9565b5050506001600160a01b038116620000b057604051631e4fbdf760e01b81526000600482015260240160405180910390fd5b620000bb81620000c2565b5062000285565b600680546001600160a01b038381166001600160a01b0319831681179093556040519116919082907f8be0079c531659141344cd1fd0a4f28419497f9722a3daafe3b4186f6b6457e090600090a35050565b634e487b7160e01b600052604160045260246000fd5b600181811c908216806200013f57607f821691505b6020821081036200016057634e487b7160e01b600052602260045260246000fd5b50919050565b601f821115620001b457600081815260208120601f850160051c810160208610156200018f5750805b601f850160051c820191505b81811015620001b0578281556001016200019b565b5050505b505050565b81516001600160401b03811115620001d557620001d562000114565b620001ed81620001e684546200012a565b8462000166565b602080601f8311600181146200022557600084156200020c5750858301515b600019600386901b1c1916600185901b178555620001b0565b600085815260208120601f198616915b82811015620002565788860151825594840194600190910190840162000235565b5085821015620002755787850151600019600388901b60f8161c191681555b5050505050600190811b01905550565b611f0380620002956000396000f3fe608060405234801561001057600080fd5b50600436106101cf5760003560e01c80638da5cb5b11610104578063bace56ba116100a2578063daa6da2a11610071578063daa6da2a14610484578063e288e47914610497578063e985e9c5146104aa578063f2fde38b146104bd57600080fd5b8063bace56ba1461042b578063c87b56dd1461043e578063d3f491b314610451578063d4a537c41461047157600080fd5b8063a1b416f9116100de578063a1b416f914610371578063a1cda5ba146103e2578063a22cb46514610405578063b88d4fde1461041857600080fd5b80638da5cb5b1461033857806395d89b41146103495780639bef1c431461035157600080fd5b806337b6d96b1161017157806370a082311161014b57806370a08231146102d3578063715018a6146102f4578063809c9c3b146102fc5780638777b7b91461030f57600080fd5b806337b6d96b1461028a57806342842e0e146102ad5780636352211e146102c057600080fd5b8063095ea7b3116101ad578063095ea7b31461023c57806321bfcaa11461025157806323b872dd146102645780632b294c8f1461027757600080fd5b806301ffc9a7146101d457806306fdde03146101fc578063081812fc14610211575b600080fd5b6101e76101e23660046118a4565b6104d0565b60405190151581526020015b60405180910390f35b610204610522565b6040516101f3919061190e565b61022461021f366004611921565b6105b4565b6040516001600160a01b0390911681526020016101f3565b61024f61024a366004611956565b6105dd565b005b61024f61025f366004611980565b6105ec565b61024f6102723660046119ac565b6106e2565b6101e7610285366004611a31565b61076d565b6101e7610298366004611921565b600d6020526000908152604090205460ff1681565b61024f6102bb3660046119ac565b6107ba565b6102246102ce366004611921565b6107da565b6102e66102e1366004611a73565b6107e5565b6040519081526020016101f3565b61024f61082d565b6101e761030a366004611a31565b610841565b61022461031d366004611921565b600c602052600090815260409020546001600160a01b031681565b6006546001600160a01b0316610224565b61020461088e565b6102e661035f366004611921565b600a6020526000908152604090205481565b6103b361037f366004611921565b60086020526000908152604090208054600182015460029092015490919060ff81169061010090046001600160a01b031684565b604080519485526020850193909352901515918301919091526001600160a01b031660608201526080016101f3565b6101e76103f0366004611921565b600e6020526000908152604090205460ff1681565b61024f610413366004611a9e565b61089d565b61024f610426366004611ade565b6108a8565b610224610439366004611a31565b6108c0565b61020461044c366004611921565b610944565b6102e661045f366004611921565b60096020526000908152604090205481565b61024f61047f366004611bba565b610a40565b61024f610492366004611c21565b610d3d565b61024f6104a5366004611c96565b6110a9565b6101e76104b8366004611cd2565b61117e565b61024f6104cb366004611a73565b6111ac565b60006001600160e01b031982166380ac58cd60e01b148061050157506001600160e01b03198216635b5e139f60e01b145b8061051c57506301ffc9a760e01b6001600160e01b03198316145b92915050565b60606000805461053190611cfc565b80601f016020809104026020016040519081016040528092919081815260200182805461055d90611cfc565b80156105aa5780601f1061057f576101008083540402835291602001916105aa565b820191906000526020600020905b81548152906001019060200180831161058d57829003601f168201915b5050505050905090565b60006105bf826111ea565b506000828152600460205260409020546001600160a01b031661051c565b6105e8828233611223565b5050565b336105f6836107da565b6001600160a01b03161461063d5760405162461bcd60e51b81526020600482015260096024820152682737ba1037bbb732b960b91b60448201526064015b60405180910390fd5b6001600160a01b0381166106845760405162461bcd60e51b815260206004820152600e60248201526d125b9d985b1a59081dd85b1b195d60921b6044820152606401610634565b6000828152600c602052604080822080546001600160a01b031981166001600160a01b038681169182179093559251911692839186917f077d716ff87324ebc1f47f5d72282006cdae2f8b0339ef3a6194280b4eb8755e91a4505050565b6001600160a01b03821661070c57604051633250574960e11b815260006004820152602401610634565b6000610719838333611230565b9050836001600160a01b0316816001600160a01b031614610767576040516364283d7b60e01b81526001600160a01b0380861660048301526024820184905282166044820152606401610634565b50505050565b600080600a600061077e86866112b5565b8152602001908152602001600020549050806000036107a157600091505061051c565b6000908152600d602052604090205460ff169392505050565b6107d5838383604051806020016040528060008152506108a8565b505050565b600061051c826111ea565b60006001600160a01b038216610811576040516322718ad960e21b815260006004820152602401610634565b506001600160a01b031660009081526003602052604090205490565b6108356112e8565b61083f6000611315565b565b600080600a600061085286866112b5565b81526020019081526020016000205490508060000361087557600091505061051c565b6000908152600e602052604090205460ff169392505050565b60606001805461053190611cfc565b6105e8338383611367565b6108b38484846106e2565b6107673385858585611406565b600080600a60006108d186866112b5565b8152602001908152602001600020549050806000036109255760405162461bcd60e51b815260206004820152601060248201526f1059d95b9d081b9bdd081b5a5b9d195960821b6044820152606401610634565b6000908152600c60205260409020546001600160a01b03169392505050565b6000818152600260205260409020546060906001600160a01b03166109a25760405162461bcd60e51b8152602060048201526014602482015273151bdad95b88191bd95cc81b9bdd08195e1a5cdd60621b6044820152606401610634565b6000828152600b6020526040902080546109bb90611cfc565b80601f01602080910402602001604051908101604052809291908181526020018280546109e790611cfc565b8015610a345780601f10610a0957610100808354040283529160200191610a34565b820191906000526020600020905b815481529060010190602001808311610a1757829003601f168201915b50505050509050919050565b83610a805760405162461bcd60e51b815260206004820152601060248201526f125b9d985b1a59081859d95b9d08125160821b6044820152606401610634565b82610acd5760405162461bcd60e51b815260206004820152601860248201527f496e76616c6964207265736572766174696f6e206861736800000000000000006044820152606401610634565b428211610b145760405162461bcd60e51b8152602060048201526015602482015274457870697279206d7573742062652066757475726560581b6044820152606401610634565b6001600160a01b038116610b5b5760405162461bcd60e51b815260206004820152600e60248201526d125b9d985b1a59081dd85b1b195d60921b6044820152606401610634565b6000610b6786866112b5565b6000818152600a602052604090205490915015610bb75760405162461bcd60e51b815260206004820152600e60248201526d105b1c9958591e481b5a5b9d195960921b6044820152606401610634565b60008181526008602052604090206002015460ff1615610c0b5760405162461bcd60e51b815260206004820152600f60248201526e105b1c9958591e4818db185a5b5959608a1b6044820152606401610634565b6006546001600160a01b0316331480610c2c5750336001600160a01b038316145b610c695760405162461bcd60e51b815260206004820152600e60248201526d139bdd08185d5d1a1bdc9a5e995960921b6044820152606401610634565b60408051608081018252858152602080820186815260008385018181526001600160a01b03888116606087018181528985526008909652928790209551865592516001860155516002909401805493516001600160a81b0319909416941515610100600160a81b031916949094176101009390921692909202179091559051610cf59088908890611d36565b6040805191829003822087835260208301879052917f5da01a95ce4f8f38d72333fbc9a0134bb2067e213a0cb5cf01cb2e4897f96951910160405180910390a3505050505050565b83610d7d5760405162461bcd60e51b815260206004820152601060248201526f125b9d985b1a59081859d95b9d08125160821b6044820152606401610634565b81610dc15760405162461bcd60e51b8152602060048201526014602482015273496e76616c6964206d657461646174612055524960601b6044820152606401610634565b6001600160a01b038116610e0f5760405162461bcd60e51b8152602060048201526015602482015274125b9d985b1a59081c185e5bdd5d081dd85b1b195d605a1b6044820152606401610634565b6000610e1b86866112b5565b6000818152600860205260409020805491925090610e6c5760405162461bcd60e51b815260206004820152600e60248201526d2737903932b9b2b93b30ba34b7b760911b6044820152606401610634565b600281015460ff1615610eb35760405162461bcd60e51b815260206004820152600f60248201526e105b1c9958591e4818db185a5b5959608a1b6044820152606401610634565b8060010154421115610ef15760405162461bcd60e51b8152602060048201526007602482015266115e1c1a5c995960ca1b6044820152606401610634565b6000828152600a602052604090205415610f3e5760405162461bcd60e51b815260206004820152600e60248201526d105b1c9958591e481b5a5b9d195960921b6044820152606401610634565b600281015461010090046001600160a01b03163314610f905760405162461bcd60e51b815260206004820152600e60248201526d139bdd08185d5d1a1bdc9a5e995960921b6044820152606401610634565b60028101805460ff1916600117905560078054906000610faf83611d46565b9091555050600754610fc13382611531565b6000818152600960209081526040808320869055858352600a8252808320849055838352600b9091529020610ff7868883611db3565b506000818152600c60205260409081902080546001600160a01b0319166001600160a01b0387161790555133908290611033908b908b90611d36565b6040519081900381206001600160a01b0388168252907fb4fc0554468ee52bb5bfe2087b0381e11dd6d5e77574ea9d2a5e4caa1fc7c8159060200160405180910390a450506000908152600860205260408120818155600181019190915560020180546001600160a81b03191690555050505050565b6110b16112e8565b6000838152600260205260409020546001600160a01b031661110c5760405162461bcd60e51b8152602060048201526014602482015273151bdad95b88191bd95cc81b9bdd08195e1a5cdd60621b6044820152606401610634565b6000838152600d60209081526040808320805486151560ff199182168117909255600e845293829020805486151595168517905581519081529182019290925284917f2496e835822d2f73a86fc543a26b70d6d8524115ec62b30665cbd6d3d1ce0083910160405180910390a2505050565b6001600160a01b03918216600090815260056020908152604080832093909416825291909152205460ff1690565b6111b46112e8565b6001600160a01b0381166111de57604051631e4fbdf760e01b815260006004820152602401610634565b6111e781611315565b50565b6000818152600260205260408120546001600160a01b03168061051c57604051637e27328960e01b815260048101849052602401610634565b6107d5838383600161154b565b60008061123e858585611651565b90506001600160a01b0381161580159061126057506001600160a01b03851615155b156112ad5760405162461bcd60e51b815260206004820152601b60248201527f536f756c626f756e643a206e6f6e2d7472616e7366657261626c6500000000006044820152606401610634565b949350505050565b600082826040516020016112ca929190611d36565b60405160208183030381529060405280519060200120905092915050565b6006546001600160a01b0316331461083f5760405163118cdaa760e01b8152336004820152602401610634565b600680546001600160a01b038381166001600160a01b0319831681179093556040519116919082907f8be0079c531659141344cd1fd0a4f28419497f9722a3daafe3b4186f6b6457e090600090a35050565b6001600160a01b03821661139957604051630b61174360e31b81526001600160a01b0383166004820152602401610634565b6001600160a01b03838116600081815260056020908152604080832094871680845294825291829020805460ff191686151590811790915591519182527f17307eab39ab6107e8899845ad3d59bd9653f200f220920489ca2b5937696c31910160405180910390a3505050565b6001600160a01b0383163b1561152a57604051630a85bd0160e11b81526001600160a01b0384169063150b7a0290611448908890889087908790600401611e73565b6020604051808303816000875af1925050508015611483575060408051601f3d908101601f1916820190925261148091810190611eb0565b60015b6114ec573d8080156114b1576040519150601f19603f3d011682016040523d82523d6000602084013e6114b6565b606091505b5080516000036114e457604051633250574960e11b81526001600160a01b0385166004820152602401610634565b805160208201fd5b6001600160e01b03198116630a85bd0160e11b1461152857604051633250574960e11b81526001600160a01b0385166004820152602401610634565b505b5050505050565b6105e882826040518060200160405280600081525061174a565b808061155f57506001600160a01b03821615155b1561162157600061156f846111ea565b90506001600160a01b0383161580159061159b5750826001600160a01b0316816001600160a01b031614155b80156115ae57506115ac818461117e565b155b156115d75760405163a9fbf51f60e01b81526001600160a01b0384166004820152602401610634565b811561161f5783856001600160a01b0316826001600160a01b03167f8c5be1e5ebec7d5bd14f71427d1e84f3dd0314c0f7b2291e5b200ac8c7c3b92560405160405180910390a45b505b5050600090815260046020526040902080546001600160a01b0319166001600160a01b0392909216919091179055565b6000828152600260205260408120546001600160a01b039081169083161561167e5761167e818486611762565b6001600160a01b038116156116bc5761169b60008560008061154b565b6001600160a01b038116600090815260036020526040902080546000190190555b6001600160a01b038516156116eb576001600160a01b0385166000908152600360205260409020805460010190555b60008481526002602052604080822080546001600160a01b0319166001600160a01b0389811691821790925591518793918516917fddf252ad1be2c89b69c2b068fc378daa952ba7f163c4a11628f55a4df523b3ef91a4949350505050565b61175483836117c6565b6107d5336000858585611406565b61176d83838361182b565b6107d5576001600160a01b03831661179b57604051637e27328960e01b815260048101829052602401610634565b60405163177e802f60e01b81526001600160a01b038316600482015260248101829052604401610634565b6001600160a01b0382166117f057604051633250574960e11b815260006004820152602401610634565b60006117fe83836000611230565b90506001600160a01b038116156107d5576040516339e3563760e11b815260006004820152602401610634565b60006001600160a01b038316158015906112ad5750826001600160a01b0316846001600160a01b031614806118655750611865848461117e565b806112ad5750506000908152600460205260409020546001600160a01b03908116911614919050565b6001600160e01b0319811681146111e757600080fd5b6000602082840312156118b657600080fd5b81356118c18161188e565b9392505050565b6000815180845260005b818110156118ee576020818501810151868301820152016118d2565b506000602082860101526020601f19601f83011685010191505092915050565b6020815260006118c160208301846118c8565b60006020828403121561193357600080fd5b5035919050565b80356001600160a01b038116811461195157600080fd5b919050565b6000806040838503121561196957600080fd5b6119728361193a565b946020939093013593505050565b6000806040838503121561199357600080fd5b823591506119a36020840161193a565b90509250929050565b6000806000606084860312156119c157600080fd5b6119ca8461193a565b92506119d86020850161193a565b9150604084013590509250925092565b60008083601f8401126119fa57600080fd5b50813567ffffffffffffffff811115611a1257600080fd5b602083019150836020828501011115611a2a57600080fd5b9250929050565b60008060208385031215611a4457600080fd5b823567ffffffffffffffff811115611a5b57600080fd5b611a67858286016119e8565b90969095509350505050565b600060208284031215611a8557600080fd5b6118c18261193a565b8035801515811461195157600080fd5b60008060408385031215611ab157600080fd5b611aba8361193a565b91506119a360208401611a8e565b634e487b7160e01b600052604160045260246000fd5b60008060008060808587031215611af457600080fd5b611afd8561193a565b9350611b0b6020860161193a565b925060408501359150606085013567ffffffffffffffff80821115611b2f57600080fd5b818701915087601f830112611b4357600080fd5b813581811115611b5557611b55611ac8565b604051601f8201601f19908116603f01168101908382118183101715611b7d57611b7d611ac8565b816040528281528a6020848701011115611b9657600080fd5b82602086016020830137600060208483010152809550505050505092959194509250565b600080600080600060808688031215611bd257600080fd5b853567ffffffffffffffff811115611be957600080fd5b611bf5888289016119e8565b9096509450506020860135925060408601359150611c156060870161193a565b90509295509295909350565b600080600080600060608688031215611c3957600080fd5b853567ffffffffffffffff80821115611c5157600080fd5b611c5d89838a016119e8565b90975095506020880135915080821115611c7657600080fd5b50611c83888289016119e8565b9094509250611c1590506040870161193a565b600080600060608486031215611cab57600080fd5b83359250611cbb60208501611a8e565b9150611cc960408501611a8e565b90509250925092565b60008060408385031215611ce557600080fd5b611cee8361193a565b91506119a36020840161193a565b600181811c90821680611d1057607f821691505b602082108103611d3057634e487b7160e01b600052602260045260246000fd5b50919050565b8183823760009101908152919050565b600060018201611d6657634e487b7160e01b600052601160045260246000fd5b5060010190565b601f8211156107d557600081815260208120601f850160051c81016020861015611d945750805b601f850160051c820191505b8181101561152857828155600101611da0565b67ffffffffffffffff831115611dcb57611dcb611ac8565b611ddf83611dd98354611cfc565b83611d6d565b6000601f841160018114611e135760008515611dfb5750838201355b600019600387901b1c1916600186901b17835561152a565b600083815260209020601f19861690835b82811015611e445786850135825560209485019460019092019101611e24565b5086821015611e615760001960f88860031b161c19848701351681555b505060018560011b0183555050505050565b6001600160a01b0385811682528416602082015260408101839052608060608201819052600090611ea6908301846118c8565b9695505050505050565b600060208284031215611ec257600080fd5b81516118c18161188e56fea2646970667358221220842c6b51e4ba8ffdf8c54b6e60e3be953dcd853599d4c817bb484a9d7c277c6b64736f6c63430008140033",
  "linkReferences": {},
  "deployedLinkReferences": {}
}